{
  "_format": "hh-sol-artifact-1",
  "contractName": "AuthContract",
  "sourceName": "contracts/Auth.sol",
  "abi": [
    {
      "anonymous": false,
      "inputs": [
        {
          "indexed": true,
          "internalType": "address",
          "name": "userAddress",
          "type": "address"
        },
        {
          "indexed": false,
          "internalType": "string",
          "name": "username",
          "type": "string"
        }
      ],
      "name": "UserRegistered",
      "type": "event"
    },
    {
      "inputs": [
        {
          "internalType": "bytes32",
          "name": "_passwordHash",
          "type": "bytes32"
        }
      ],
      "name": "loginUser",
      "outputs": [
        {
          "internalType": "bool",
          "name": "",
          "type": "bool"
        }
      ],
      "stateMutability": "view",
      "type": "function"
    },
    {
      "inputs": [
        {
          "internalType": "string",
          "name": "_username",
          "type": "string"
        },
        {
          "internalType": "bytes32",
          "name": "_passwordHash",
          "type": "bytes32"
        }
      ],
      "name": "registerUser",
      "outputs": [],
      "stateMutability": "nonpayable",
      "type": "function"
    },
    {
      "inputs": [
        {
          "internalType": "address",
          "name": "",
          "type": "address"
        }
      ],
      "name": "users",
      "outputs": [
        {
          "internalType": "string",
          "name": "username",
          "type": "string"
        },
        {
          "internalType": "bytes32",
          "name": "passwordHash",
          "type": "bytes32"
        }
      ],
      "stateMutability": "view",
      "type": "function"
    }
  ],
  "bytecode": "0x608060405234801561001057600080fd5b50610a4e806100206000396000f3fe608060405234801561001057600080fd5b50600436106100415760003560e01c806368ae556314610046578063a87430ba14610062578063bf15290314610093575b600080fd5b610060600480360381019061005b919061049a565b6100c3565b005b61007c60048036038101906100779190610554565b610211565b60405161008a92919061060f565b60405180910390f35b6100ad60048036038101906100a8919061063f565b6102bd565b6040516100ba9190610687565b60405180910390f35b6000801b6000803373ffffffffffffffffffffffffffffffffffffffff1673ffffffffffffffffffffffffffffffffffffffff1681526020019081526020016000206001015414610149576040517f08c379a0000000000000000000000000000000000000000000000000000000008152600401610140906106ee565b60405180910390fd5b6040518060400160405280838152602001828152506000803373ffffffffffffffffffffffffffffffffffffffff1673ffffffffffffffffffffffffffffffffffffffff16815260200190815260200160002060008201518160000190816101b19190610924565b50602082015181600101559050503373ffffffffffffffffffffffffffffffffffffffff167f48cac28ad4dc618e15f4c2dd5e97751182f166de97b25618318b2112aa951a2f8360405161020591906109f6565b60405180910390a25050565b60006020528060005260406000206000915090508060000180546102349061073d565b80601f01602080910402602001604051908101604052809291908181526020018280546102609061073d565b80156102ad5780601f10610282576101008083540402835291602001916102ad565b820191906000526020600020905b81548152906001019060200180831161029057829003601f168201915b5050505050908060010154905082565b6000816000803373ffffffffffffffffffffffffffffffffffffffff1673ffffffffffffffffffffffffffffffffffffffff16815260200190815260200160002060010154149050919050565b6000604051905090565b600080fd5b600080fd5b600080fd5b600080fd5b6000601f19601f8301169050919050565b7f4e487b7100000000000000000000000000000000000000000000000000000000600052604160045260246000fd5b61037182610328565b810181811067ffffffffffffffff821117156103905761038f610339565b5b80604052505050565b60006103a361030a565b90506103af8282610368565b919050565b600067ffffffffffffffff8211156103cf576103ce610339565b5b6103d882610328565b9050602081019050919050565b82818337600083830152505050565b6000610407610402846103b4565b610399565b90508281526020810184848401111561042357610422610323565b5b61042e8482856103e5565b509392505050565b600082601f83011261044b5761044a61031e565b5b813561045b8482602086016103f4565b91505092915050565b6000819050919050565b61047781610464565b811461048257600080fd5b50565b6000813590506104948161046e565b92915050565b600080604083850312156104b1576104b0610314565b5b600083013567ffffffffffffffff8111156104cf576104ce610319565b5b6104db85828601610436565b92505060206104ec85828601610485565b9150509250929050565b600073ffffffffffffffffffffffffffffffffffffffff82169050919050565b6000610521826104f6565b9050919050565b61053181610516565b811461053c57600080fd5b50565b60008135905061054e81610528565b92915050565b60006020828403121561056a57610569610314565b5b60006105788482850161053f565b91505092915050565b600081519050919050565b600082825260208201905092915050565b60005b838110156105bb5780820151818401526020810190506105a0565b60008484015250505050565b60006105d282610581565b6105dc818561058c565b93506105ec81856020860161059d565b6105f581610328565b840191505092915050565b61060981610464565b82525050565b6000604082019050818103600083015261062981856105c7565b90506106386020830184610600565b9392505050565b60006020828403121561065557610654610314565b5b600061066384828501610485565b91505092915050565b60008115159050919050565b6106818161066c565b82525050565b600060208201905061069c6000830184610678565b92915050565b7f5573657220616c72656164792072656769737465726564000000000000000000600082015250565b60006106d860178361058c565b91506106e3826106a2565b602082019050919050565b60006020820190508181036000830152610707816106cb565b9050919050565b7f4e487b7100000000000000000000000000000000000000000000000000000000600052602260045260246000fd5b6000600282049050600182168061075557607f821691505b6020821081036107685761076761070e565b5b50919050565b60008190508160005260206000209050919050565b60006020601f8301049050919050565b600082821b905092915050565b6000600883026107d07fffffffffffffffffffffffffffffffffffffffffffffffffffffffffffffffff82610793565b6107da8683610793565b95508019841693508086168417925050509392505050565b6000819050919050565b6000819050919050565b600061082161081c610817846107f2565b6107fc565b6107f2565b9050919050565b6000819050919050565b61083b83610806565b61084f61084782610828565b8484546107a0565b825550505050565b600090565b610864610857565b61086f818484610832565b505050565b5b818110156108935761088860008261085c565b600181019050610875565b5050565b601f8211156108d8576108a98161076e565b6108b284610783565b810160208510156108c1578190505b6108d56108cd85610783565b830182610874565b50505b505050565b600082821c905092915050565b60006108fb600019846008026108dd565b1980831691505092915050565b600061091483836108ea565b9150826002028217905092915050565b61092d82610581565b67ffffffffffffffff81111561094657610945610339565b5b610950825461073d565b61095b828285610897565b600060209050601f83116001811461098e576000841561097c578287015190505b6109868582610908565b8655506109ee565b601f19841661099c8661076e565b60005b828110156109c45784890151825560018201915060208501945060208101905061099f565b868310156109e157848901516109dd601f8916826108ea565b8355505b6001600288020188555050505b505050505050565b60006020820190508181036000830152610a1081846105c7565b90509291505056fea264697066735822122080c21c758c8475af95d8b6e4e4b02a9069e6afc6935c8c14241d61e2ebb3aa0b64736f6c63430008130033",
  "linkReferences": {},
  "deployedLinkReferences": {}
}